{
  "valid": {
    "build": [
      {
        "description": "Transaction w/ P2PKH -> P2PKH",
        "txHex": "0100000001ffffffffffffffffffffffffffffffffffffffffffffffffffffffffffffffff000000006a47304402205054545f7283289871d0ebb6d077fd3151663e280cad85c621082e6b56f83e2c022013f43526bfdabc281b7562760f4d2d439c5e43bd575ceeff20f8ac534c416c5b01210279be667ef9dcbbac55a06295ce870b07029bfcdb2dce28d959f2815b16f81798ffffffff0110270000000000001976a914aa4d7985c57e011a8b3dd8e0e5a73aaef41629c588ac00000000",
        "version": 1,
        "inputs": [
          {
            "txId": "ffffffffffffffffffffffffffffffffffffffffffffffffffffffffffffffff",
            "vout": 0,
            "signs": [
              {
                "keyPair": "KwDiBf89QgGbjEhKnhXJuH7LrciVrZi3qYjgd9M7rFU73sVHnoWn"
              }
            ]
          }
        ],
        "outputs": [
          {
            "script": "OP_DUP OP_HASH160 aa4d7985c57e011a8b3dd8e0e5a73aaef41629c5 OP_EQUALVERIFY OP_CHECKSIG",
            "value": 10000
          }
        ]
      },
      {
        "description": "Transaction w/ P2PKH -> P2WSH",
        "txHex": "0100000001ffffffffffffffffffffffffffffffffffffffffffffffffffffffffffffffff000000006a47304402207c4669fcffe428057dc59c7bdc1175d8c99e528c3101a9b9b6ba3b7dbd0d04a7022076d2391603f963c12abfa0d356b8a64f5b5cda143592cbb8b748ceccc59d11b201210279be667ef9dcbbac55a06295ce870b07029bfcdb2dce28d959f2815b16f81798ffffffff01102700000000000022002032447752937d355ca2defddcd1f6b4fc53d182f8901cebbcff42f5e381bf0b8000000000",
        "version": 1,
        "inputs": [
          {
            "txId": "ffffffffffffffffffffffffffffffffffffffffffffffffffffffffffffffff",
            "vout": 0,
            "signs": [
              {
                "prevOutScriptType": "p2pkh",
                "keyPair": "KwDiBf89QgGbjEhKnhXJuH7LrciVrZi3qYjgd9M7rFU73sVHnoWn"
              }
            ]
          }
        ],
        "outputs": [
          {
            "script": "OP_0 32447752937d355ca2defddcd1f6b4fc53d182f8901cebbcff42f5e381bf0b80",
            "value": 10000
          }
        ]
      },
      {
        "description": "P2WPKH -> P2WPKH",
        "txHex": "01000000000101ffffffffffffffffffffffffffffffffffffffffffffffffffffffffffffffff0000000000ffffffff011027000000000000160014aa4d7985c57e011a8b3dd8e0e5a73aaef41629c50247304402203ac61713de787e4e4cc397d43e232f23cf2c57abe70111c1f0cc07bad44412af02205c1eda468f7ee70d65d7258c095f21648981de66f9d8f40598666aba03d42e5801210279be667ef9dcbbac55a06295ce870b07029bfcdb2dce28d959f2815b16f8179800000000",
        "version": 1,
        "inputs": [
          {
            "txId": "ffffffffffffffffffffffffffffffffffffffffffffffffffffffffffffffff",
            "vout": 0,
            "prevTxScript": "OP_0 751e76e8199196d454941c45d1b3a323f1433bd6",
            "signs": [
              {
                "prevOutScriptType": "p2wpkh",
                "keyPair": "KwDiBf89QgGbjEhKnhXJuH7LrciVrZi3qYjgd9M7rFU73sVHnoWn",
                "value": 10000
              }
            ]
          }
        ],
        "outputs": [
          {
            "script": "OP_0 aa4d7985c57e011a8b3dd8e0e5a73aaef41629c5",
            "value": 10000
          }
        ]
      },
      {
        "description": "SIGHASH SINGLE (random)",
        "txHex": "01000000012ffb29d53528ad30c37c267fbbeda3c6fce08f5f6f5d3b1eab22193599a3612a010000006a473044022030d187fa8f8e2674319869d4ed941a2672a8dbf38512e4dec6236d1938e99c56022075b49836ccf87d091e0420669f629fc799bdfc1e6aa70dd32bd2e70bd4c29823032102f1c7eac9200f8dee7e34e59318ff2076c8b3e3ac7f43121e57569a1aec1803d4ffffffff0260a62f01000000001976a9140de1f9b92d2ab6d8ead83f9a0ff5cf518dcb03b888ac80969800000000001976a91454d0e925d5ee0ee26768a237067dee793d01a70688ac00000000",
        "version": 1,
        "inputs": [
          {
            "txId": "2a61a399351922ab1e3b5d6f5f8fe0fcc6a3edbb7f267cc330ad2835d529fb2f",
            "vout": 1,
            "signs": [
              {
                "keyPair": "KzRGFiqhXB7SyX6idHQkt77B8mX7adnujdg3VG47jdVK2x4wbUYg",
                "hashType": 3,
                "value": 30000000
              }
            ],
            "sequence": 4294967295,
            "prevTxScript": "OP_DUP OP_HASH160 0de1f9b92d2ab6d8ead83f9a0ff5cf518dcb03b8 OP_EQUALVERIFY OP_CHECKSIG"
          }
        ],
        "outputs": [
          {
            "value": 19900000,
            "script": "OP_DUP OP_HASH160 0de1f9b92d2ab6d8ead83f9a0ff5cf518dcb03b8 OP_EQUALVERIFY OP_CHECKSIG"
          },
          {
            "value": 10000000,
            "script": "OP_DUP OP_HASH160 54d0e925d5ee0ee26768a237067dee793d01a706 OP_EQUALVERIFY OP_CHECKSIG"
          }
        ]
      },
      {
        "description": "SIGHASH ALL",
        "txHex": "01000000037db7f0b2a345ded6ddf28da3211a7d7a95a2943e9a879493d6481b7d69613f040100000069463043021f18736e6ce7cd57e7f8697630443d295443cc6bc5366b83f8d212424cf9769402207870657de0b06421b42f8e8e027db6c9367a9c37a8cba910f8ed559346914037012102f1c7eac9200f8dee7e34e59318ff2076c8b3e3ac7f43121e57569a1aec1803d4ffffffff652c491e5a781a6a3c547fa8d980741acbe4623ae52907278f10e1f064f67e05000000006a473044022016401cb07b79fe9b9179240cecfa9ffd688233d9069ce46e57fa6a6b1a79f748022044fa15d3eb3d93beca78e5bd5858a46f576bf85cc64c293e943709139c4c7bfd012102f1c7eac9200f8dee7e34e59318ff2076c8b3e3ac7f43121e57569a1aec1803d4ffffffffb9fa270fa3e4dd8c79f9cbfe5f1953cba071ed081f7c277a49c33466c695db35000000006a473044022061ba18e9282f3263503bb17e61d8719925c0c160b4df5990d8d18bce926bb84802207dd6a2c8a5c20f875018c4bff6dfc558af8f3c0bcbf32450819c7c40a318feb8012102f1c7eac9200f8dee7e34e59318ff2076c8b3e3ac7f43121e57569a1aec1803d4ffffffff03204e0000000000001976a9149ed1f577c60e4be1dbf35318ec12f51d25e8577388ac30750000000000001976a914fb407e88c48921d5547d899e18a7c0a36919f54d88ac50c30000000000001976a91404ccb4eed8cfa9f6e394e945178960f5ccddb38788ac00000000",
        "version": 1,
        "inputs": [
          {
            "txId": "043f61697d1b48d69394879a3e94a2957a7d1a21a38df2ddd6de45a3b2f0b77d",
            "vout": 1,
            "signs": [
              {
                "keyPair": "KzRGFiqhXB7SyX6idHQkt77B8mX7adnujdg3VG47jdVK2x4wbUYg",
                "hashType": 1,
                "value": 40000
              }
            ],
            "sequence": 4294967295,
            "prevTxScript": "OP_DUP OP_HASH160 0de1f9b92d2ab6d8ead83f9a0ff5cf518dcb03b8 OP_EQUALVERIFY OP_CHECKSIG"
          },
          {
            "txId": "057ef664f0e1108f270729e53a62e4cb1a7480d9a87f543c6a1a785a1e492c65",
            "vout": 0,
            "signs": [
              {
                "keyPair": "KzRGFiqhXB7SyX6idHQkt77B8mX7adnujdg3VG47jdVK2x4wbUYg",
                "hashType": 1,
                "value": 40000
              }
            ],
            "sequence": 4294967295,
            "prevTxScript": "OP_DUP OP_HASH160 0de1f9b92d2ab6d8ead83f9a0ff5cf518dcb03b8 OP_EQUALVERIFY OP_CHECKSIG"
          },
          {
            "txId": "35db95c66634c3497a277c1f08ed71a0cb53195ffecbf9798cdde4a30f27fab9",
            "vout": 0,
            "signs": [
              {
                "keyPair": "KzRGFiqhXB7SyX6idHQkt77B8mX7adnujdg3VG47jdVK2x4wbUYg",
                "hashType": 1,
                "value": 40000
              }
            ],
            "sequence": 4294967295,
            "prevTxScript": "OP_DUP OP_HASH160 0de1f9b92d2ab6d8ead83f9a0ff5cf518dcb03b8 OP_EQUALVERIFY OP_CHECKSIG"
          }
        ],
        "outputs": [
          {
            "value": 20000,
            "script": "OP_DUP OP_HASH160 9ed1f577c60e4be1dbf35318ec12f51d25e85773 OP_EQUALVERIFY OP_CHECKSIG"
          },
          {
            "value": 30000,
            "script": "OP_DUP OP_HASH160 fb407e88c48921d5547d899e18a7c0a36919f54d OP_EQUALVERIFY OP_CHECKSIG"
          },
          {
            "value": 50000,
            "script": "OP_DUP OP_HASH160 04ccb4eed8cfa9f6e394e945178960f5ccddb387 OP_EQUALVERIFY OP_CHECKSIG"
          }
        ]
      },
      {
        "description": "SIGHASH ALL | ANYONECANPAY",
        "txHex": "01000000037db7f0b2a345ded6ddf28da3211a7d7a95a2943e9a879493d6481b7d69613f04010000006a4730440220443619c049d8f3f6b4d87a107fd7d186ce82bb3245296b336a35bf172f6e388c0220460a1b92ecc6a686c3d3a336e67d70cb11a7656b35bec600f9dc1329e99397ff812102f1c7eac9200f8dee7e34e59318ff2076c8b3e3ac7f43121e57569a1aec1803d4ffffffff652c491e5a781a6a3c547fa8d980741acbe4623ae52907278f10e1f064f67e05000000006a473044022029e2be0d12965f29088960b397816be0ff6e6033c876ac78fb433a72e6ffcb9002203f88796ef952003a98da76d50d6c66309bc702efafa7257a4f17494c4bf25910812102f1c7eac9200f8dee7e34e59318ff2076c8b3e3ac7f43121e57569a1aec1803d4ffffffffb9fa270fa3e4dd8c79f9cbfe5f1953cba071ed081f7c277a49c33466c695db35000000006a47304402206f1e7d27fb640636e7e7311d763b5772d9a1ab812e465d4d17ac15692e1d3889022013f9596bfa67f8e26f917b4c3b36f893a945e2a04a4e1b8bb4406537507b30b0812102f1c7eac9200f8dee7e34e59318ff2076c8b3e3ac7f43121e57569a1aec1803d4ffffffff03204e0000000000001976a9149ed1f577c60e4be1dbf35318ec12f51d25e8577388ac30750000000000001976a914fb407e88c48921d5547d899e18a7c0a36919f54d88ac50c30000000000001976a91404ccb4eed8cfa9f6e394e945178960f5ccddb38788ac00000000",
        "version": 1,
        "inputs": [
          {
            "txId": "043f61697d1b48d69394879a3e94a2957a7d1a21a38df2ddd6de45a3b2f0b77d",
            "vout": 1,
            "signs": [
              {
                "keyPair": "KzRGFiqhXB7SyX6idHQkt77B8mX7adnujdg3VG47jdVK2x4wbUYg",
                "hashType": 129,
                "value": 40000
              }
            ],
            "sequence": 4294967295,
            "prevTxScript": "OP_DUP OP_HASH160 0de1f9b92d2ab6d8ead83f9a0ff5cf518dcb03b8 OP_EQUALVERIFY OP_CHECKSIG"
          },
          {
            "txId": "057ef664f0e1108f270729e53a62e4cb1a7480d9a87f543c6a1a785a1e492c65",
            "vout": 0,
            "signs": [
              {
                "keyPair": "KzRGFiqhXB7SyX6idHQkt77B8mX7adnujdg3VG47jdVK2x4wbUYg",
                "hashType": 129,
                "value": 40000
              }
            ],
            "sequence": 4294967295,
            "prevTxScript": "OP_DUP OP_HASH160 0de1f9b92d2ab6d8ead83f9a0ff5cf518dcb03b8 OP_EQUALVERIFY OP_CHECKSIG"
          },
          {
            "txId": "35db95c66634c3497a277c1f08ed71a0cb53195ffecbf9798cdde4a30f27fab9",
            "vout": 0,
            "signs": [
              {
                "keyPair": "KzRGFiqhXB7SyX6idHQkt77B8mX7adnujdg3VG47jdVK2x4wbUYg",
                "hashType": 129,
                "value": 40000
              }
            ],
            "sequence": 4294967295,
            "prevTxScript": "OP_DUP OP_HASH160 0de1f9b92d2ab6d8ead83f9a0ff5cf518dcb03b8 OP_EQUALVERIFY OP_CHECKSIG"
          }
        ],
        "outputs": [
          {
            "value": 20000,
            "script": "OP_DUP OP_HASH160 9ed1f577c60e4be1dbf35318ec12f51d25e85773 OP_EQUALVERIFY OP_CHECKSIG"
          },
          {
            "value": 30000,
            "script": "OP_DUP OP_HASH160 fb407e88c48921d5547d899e18a7c0a36919f54d OP_EQUALVERIFY OP_CHECKSIG"
          },
          {
            "value": 50000,
            "script": "OP_DUP OP_HASH160 04ccb4eed8cfa9f6e394e945178960f5ccddb387 OP_EQUALVERIFY OP_CHECKSIG"
          }
        ]
      },
      {
        "description": "SIGHASH SINGLE",
        "txHex": "01000000037db7f0b2a345ded6ddf28da3211a7d7a95a2943e9a879493d6481b7d69613f04010000006a47304402204d3c4a445e705009df1eddf9695d13ce1ab737c47694d598e4cb8854ff9974d702204c3121a4c305ddc39222f4183731e0fbaa5843659cef033b0727f08a16e0a363032102f1c7eac9200f8dee7e34e59318ff2076c8b3e3ac7f43121e57569a1aec1803d4ffffffff652c491e5a781a6a3c547fa8d980741acbe4623ae52907278f10e1f064f67e05000000006a47304402203541a70e7ff49a880edebb77f02c161b91e463f5e88229605b4ad1dc4e3c73dc022021e9f21dbd2a6d7b911a54696c2aef90ee0181cf7e540ecc58036b4b0a209aa8032102f1c7eac9200f8dee7e34e59318ff2076c8b3e3ac7f43121e57569a1aec1803d4ffffffffb9fa270fa3e4dd8c79f9cbfe5f1953cba071ed081f7c277a49c33466c695db35000000006a473044022030ae2bc05ffebdac21222598acc714585be44eb00c6cfc6a0f90dae3cbee67ed022036d22884e2773156121cb631bc68d7df598da38e9eb870cf608f29a4d1059c5f032102f1c7eac9200f8dee7e34e59318ff2076c8b3e3ac7f43121e57569a1aec1803d4ffffffff03204e0000000000001976a9149ed1f577c60e4be1dbf35318ec12f51d25e8577388ac30750000000000001976a914fb407e88c48921d5547d899e18a7c0a36919f54d88ac50c30000000000001976a91404ccb4eed8cfa9f6e394e945178960f5ccddb38788ac00000000",
        "version": 1,
        "inputs": [
          {
            "txId": "043f61697d1b48d69394879a3e94a2957a7d1a21a38df2ddd6de45a3b2f0b77d",
            "vout": 1,
            "signs": [
              {
                "keyPair": "KzRGFiqhXB7SyX6idHQkt77B8mX7adnujdg3VG47jdVK2x4wbUYg",
                "hashType": 3,
                "value": 40000
              }
            ],
            "sequence": 4294967295,
            "prevTxScript": "OP_DUP OP_HASH160 0de1f9b92d2ab6d8ead83f9a0ff5cf518dcb03b8 OP_EQUALVERIFY OP_CHECKSIG"
          },
          {
            "txId": "057ef664f0e1108f270729e53a62e4cb1a7480d9a87f543c6a1a785a1e492c65",
            "vout": 0,
            "signs": [
              {
                "keyPair": "KzRGFiqhXB7SyX6idHQkt77B8mX7adnujdg3VG47jdVK2x4wbUYg",
                "hashType": 3,
                "value": 40000
              }
            ],
            "sequence": 4294967295,
            "prevTxScript": "OP_DUP OP_HASH160 0de1f9b92d2ab6d8ead83f9a0ff5cf518dcb03b8 OP_EQUALVERIFY OP_CHECKSIG"
          },
          {
            "txId": "35db95c66634c3497a277c1f08ed71a0cb53195ffecbf9798cdde4a30f27fab9",
            "vout": 0,
            "signs": [
              {
                "keyPair": "KzRGFiqhXB7SyX6idHQkt77B8mX7adnujdg3VG47jdVK2x4wbUYg",
                "hashType": 3,
                "value": 40000
              }
            ],
            "sequence": 4294967295,
            "prevTxScript": "OP_DUP OP_HASH160 0de1f9b92d2ab6d8ead83f9a0ff5cf518dcb03b8 OP_EQUALVERIFY OP_CHECKSIG"
          }
        ],
        "outputs": [
          {
            "value": 20000,
            "script": "OP_DUP OP_HASH160 9ed1f577c60e4be1dbf35318ec12f51d25e85773 OP_EQUALVERIFY OP_CHECKSIG"
          },
          {
            "value": 30000,
            "script": "OP_DUP OP_HASH160 fb407e88c48921d5547d899e18a7c0a36919f54d OP_EQUALVERIFY OP_CHECKSIG"
          },
          {
            "value": 50000,
            "script": "OP_DUP OP_HASH160 04ccb4eed8cfa9f6e394e945178960f5ccddb387 OP_EQUALVERIFY OP_CHECKSIG"
          }
        ]
      },
      {
        "description": "SIGHASH SINGLE|ANYONECANPAY",
        "txHex": "01000000037db7f0b2a345ded6ddf28da3211a7d7a95a2943e9a879493d6481b7d69613f04010000006a473044022001ce9ea0d4f326187aeb571b9d73a065dc69375eb19b9c1a2c0bc24eb78d8011022054222363b6dd8e5f75104229135611a0793d933c97a8d90a075bb65821c848cf832102f1c7eac9200f8dee7e34e59318ff2076c8b3e3ac7f43121e57569a1aec1803d4ffffffff652c491e5a781a6a3c547fa8d980741acbe4623ae52907278f10e1f064f67e05000000006a473044022020bd72f0e0310b8f8a17d640b31ba6c930aae5e91fe7f9d830502ca3a840dd9602204225645dd56b80ee8ad34facef7d6744ec650961701a97532be87a63bae1a1f3832102f1c7eac9200f8dee7e34e59318ff2076c8b3e3ac7f43121e57569a1aec1803d4ffffffffb9fa270fa3e4dd8c79f9cbfe5f1953cba071ed081f7c277a49c33466c695db35000000006a47304402202e3543a8afad14dce62170183d21aa4327d3bec39d90bd7a512f4838322f19a202205693f756e2a34dfa3b2170e1950a0f779060d1e0e58892b81d8e7bfb01f56bba832102f1c7eac9200f8dee7e34e59318ff2076c8b3e3ac7f43121e57569a1aec1803d4ffffffff03204e0000000000001976a9149ed1f577c60e4be1dbf35318ec12f51d25e8577388ac30750000000000001976a914fb407e88c48921d5547d899e18a7c0a36919f54d88ac50c30000000000001976a91404ccb4eed8cfa9f6e394e945178960f5ccddb38788ac00000000",
        "version": 1,
        "inputs": [
          {
            "txId": "043f61697d1b48d69394879a3e94a2957a7d1a21a38df2ddd6de45a3b2f0b77d",
            "vout": 1,
            "signs": [
              {
                "keyPair": "KzRGFiqhXB7SyX6idHQkt77B8mX7adnujdg3VG47jdVK2x4wbUYg",
                "hashType": 131,
                "value": 40000
              }
            ],
            "sequence": 4294967295,
            "prevTxScript": "OP_DUP OP_HASH160 0de1f9b92d2ab6d8ead83f9a0ff5cf518dcb03b8 OP_EQUALVERIFY OP_CHECKSIG"
          },
          {
            "txId": "057ef664f0e1108f270729e53a62e4cb1a7480d9a87f543c6a1a785a1e492c65",
            "vout": 0,
            "signs": [
              {
                "keyPair": "KzRGFiqhXB7SyX6idHQkt77B8mX7adnujdg3VG47jdVK2x4wbUYg",
                "hashType": 131,
                "value": 40000
              }
            ],
            "sequence": 4294967295,
            "prevTxScript": "OP_DUP OP_HASH160 0de1f9b92d2ab6d8ead83f9a0ff5cf518dcb03b8 OP_EQUALVERIFY OP_CHECKSIG"
          },
          {
            "txId": "35db95c66634c3497a277c1f08ed71a0cb53195ffecbf9798cdde4a30f27fab9",
            "vout": 0,
            "signs": [
              {
                "keyPair": "KzRGFiqhXB7SyX6idHQkt77B8mX7adnujdg3VG47jdVK2x4wbUYg",
                "hashType": 131,
                "value": 40000
              }
            ],
            "sequence": 4294967295,
            "prevTxScript": "OP_DUP OP_HASH160 0de1f9b92d2ab6d8ead83f9a0ff5cf518dcb03b8 OP_EQUALVERIFY OP_CHECKSIG"
          }
        ],
        "outputs": [
          {
            "value": 20000,
            "script": "OP_DUP OP_HASH160 9ed1f577c60e4be1dbf35318ec12f51d25e85773 OP_EQUALVERIFY OP_CHECKSIG"
          },
          {
            "value": 30000,
            "script": "OP_DUP OP_HASH160 fb407e88c48921d5547d899e18a7c0a36919f54d OP_EQUALVERIFY OP_CHECKSIG"
          },
          {
            "value": 50000,
            "script": "OP_DUP OP_HASH160 04ccb4eed8cfa9f6e394e945178960f5ccddb387 OP_EQUALVERIFY OP_CHECKSIG"
          }
        ]
      },
      {
        "description": "SIGHASH NONE",
        "txHex": "01000000037db7f0b2a345ded6ddf28da3211a7d7a95a2943e9a879493d6481b7d69613f04010000006a47304402201ea8964a0a8e28c13c0ca79cfda363c31ad7e7c6ba77e72fb3633cad0ed71e7d0220698a31ecfc569548e6a0dccbb7a103b38b657dfc0e979c1c89907496452bf894022102f1c7eac9200f8dee7e34e59318ff2076c8b3e3ac7f43121e57569a1aec1803d4ffffffff652c491e5a781a6a3c547fa8d980741acbe4623ae52907278f10e1f064f67e05000000006a47304402203ae7ec49b9da7064ba6b30c9ab92ae5feb163a5653b3a69bce8d0d97179b604902205517eff1947e717f48d243c13a27c0bcb008c2f8c70efd884d10d3ef066e6c8b022102f1c7eac9200f8dee7e34e59318ff2076c8b3e3ac7f43121e57569a1aec1803d4ffffffffb9fa270fa3e4dd8c79f9cbfe5f1953cba071ed081f7c277a49c33466c695db35000000006a47304402207ffeab5cc043ad28087dfb94dbd255413d28bf2d8315c57a506cbede72d177a2022043b8f14908ffeebe8a41e7724c6ba1164b9e208b1677101a4109e66dd63e7a77022102f1c7eac9200f8dee7e34e59318ff2076c8b3e3ac7f43121e57569a1aec1803d4ffffffff03204e0000000000001976a9149ed1f577c60e4be1dbf35318ec12f51d25e8577388ac30750000000000001976a914fb407e88c48921d5547d899e18a7c0a36919f54d88ac50c30000000000001976a91404ccb4eed8cfa9f6e394e945178960f5ccddb38788ac00000000",
        "version": 1,
        "inputs": [
          {
            "txId": "043f61697d1b48d69394879a3e94a2957a7d1a21a38df2ddd6de45a3b2f0b77d",
            "vout": 1,
            "signs": [
              {
                "keyPair": "KzRGFiqhXB7SyX6idHQkt77B8mX7adnujdg3VG47jdVK2x4wbUYg",
                "hashType": 2,
                "value": 40000
              }
            ],
            "sequence": 4294967295,
            "prevTxScript": "OP_DUP OP_HASH160 0de1f9b92d2ab6d8ead83f9a0ff5cf518dcb03b8 OP_EQUALVERIFY OP_CHECKSIG"
          },
          {
            "txId": "057ef664f0e1108f270729e53a62e4cb1a7480d9a87f543c6a1a785a1e492c65",
            "vout": 0,
            "signs": [
              {
                "keyPair": "KzRGFiqhXB7SyX6idHQkt77B8mX7adnujdg3VG47jdVK2x4wbUYg",
                "hashType": 2,
                "value": 40000
              }
            ],
            "sequence": 4294967295,
            "prevTxScript": "OP_DUP OP_HASH160 0de1f9b92d2ab6d8ead83f9a0ff5cf518dcb03b8 OP_EQUALVERIFY OP_CHECKSIG"
          },
          {
            "txId": "35db95c66634c3497a277c1f08ed71a0cb53195ffecbf9798cdde4a30f27fab9",
            "vout": 0,
            "signs": [
              {
                "keyPair": "KzRGFiqhXB7SyX6idHQkt77B8mX7adnujdg3VG47jdVK2x4wbUYg",
                "hashType": 2,
                "value": 40000
              }
            ],
            "sequence": 4294967295,
            "prevTxScript": "OP_DUP OP_HASH160 0de1f9b92d2ab6d8ead83f9a0ff5cf518dcb03b8 OP_EQUALVERIFY OP_CHECKSIG"
          }
        ],
        "outputs": [
          {
            "value": 20000,
            "script": "OP_DUP OP_HASH160 9ed1f577c60e4be1dbf35318ec12f51d25e85773 OP_EQUALVERIFY OP_CHECKSIG"
          },
          {
            "value": 30000,
            "script": "OP_DUP OP_HASH160 fb407e88c48921d5547d899e18a7c0a36919f54d OP_EQUALVERIFY OP_CHECKSIG"
          },
          {
            "value": 50000,
            "script": "OP_DUP OP_HASH160 04ccb4eed8cfa9f6e394e945178960f5ccddb387 OP_EQUALVERIFY OP_CHECKSIG"
          }
        ]
      },
      {
        "description": "SIGHASH NONE | ANYONECANPAY",
        "txHex": "01000000037db7f0b2a345ded6ddf28da3211a7d7a95a2943e9a879493d6481b7d69613f04010000006a47304402207fb34ee90526ae6c17f59b5771e119aa057e5bc72e375df9e934c4f3105bb65702203f9741587a67c7c49de5213db5a5497218d992600135108500d8131ff903045f822102f1c7eac9200f8dee7e34e59318ff2076c8b3e3ac7f43121e57569a1aec1803d4ffffffff652c491e5a781a6a3c547fa8d980741acbe4623ae52907278f10e1f064f67e05000000006a473044022061311ecdb27508a7dd41cacc00e4ffaeb2cf243a63c85932c490bde01036374e02206521f2f346727a90953567d5d7ad9280b51597e261d41acc6d8c8c454d4548a3822102f1c7eac9200f8dee7e34e59318ff2076c8b3e3ac7f43121e57569a1aec1803d4ffffffffb9fa270fa3e4dd8c79f9cbfe5f1953cba071ed081f7c277a49c33466c695db35000000006a47304402200c556e746a284f81a87cfbef77934bdb4ec2177313239d71bd321cf02d41038f022045209ca4bd0f88dc48630800c27596940ce186df4926e3585142ad0b3f03256b822102f1c7eac9200f8dee7e34e59318ff2076c8b3e3ac7f43121e57569a1aec1803d4ffffffff03204e0000000000001976a9149ed1f577c60e4be1dbf35318ec12f51d25e8577388ac30750000000000001976a914fb407e88c48921d5547d899e18a7c0a36919f54d88ac50c30000000000001976a91404ccb4eed8cfa9f6e394e945178960f5ccddb38788ac00000000",
        "version": 1,
        "inputs": [
          {
            "txId": "043f61697d1b48d69394879a3e94a2957a7d1a21a38df2ddd6de45a3b2f0b77d",
            "vout": 1,
            "signs": [
              {
                "keyPair": "KzRGFiqhXB7SyX6idHQkt77B8mX7adnujdg3VG47jdVK2x4wbUYg",
                "hashType": 130,
                "value": 40000
              }
            ],
            "sequence": 4294967295,
            "prevTxScript": "OP_DUP OP_HASH160 0de1f9b92d2ab6d8ead83f9a0ff5cf518dcb03b8 OP_EQUALVERIFY OP_CHECKSIG"
          },
          {
            "txId": "057ef664f0e1108f270729e53a62e4cb1a7480d9a87f543c6a1a785a1e492c65",
            "vout": 0,
            "signs": [
              {
                "keyPair": "KzRGFiqhXB7SyX6idHQkt77B8mX7adnujdg3VG47jdVK2x4wbUYg",
                "hashType": 130,
                "value": 40000
              }
            ],
            "sequence": 4294967295,
            "prevTxScript": "OP_DUP OP_HASH160 0de1f9b92d2ab6d8ead83f9a0ff5cf518dcb03b8 OP_EQUALVERIFY OP_CHECKSIG"
          },
          {
            "txId": "35db95c66634c3497a277c1f08ed71a0cb53195ffecbf9798cdde4a30f27fab9",
            "vout": 0,
            "signs": [
              {
                "keyPair": "KzRGFiqhXB7SyX6idHQkt77B8mX7adnujdg3VG47jdVK2x4wbUYg",
                "hashType": 130,
                "value": 40000
              }
            ],
            "sequence": 4294967295,
            "prevTxScript": "OP_DUP OP_HASH160 0de1f9b92d2ab6d8ead83f9a0ff5cf518dcb03b8 OP_EQUALVERIFY OP_CHECKSIG"
          }
        ],
        "outputs": [
          {
            "value": 20000,
            "script": "OP_DUP OP_HASH160 9ed1f577c60e4be1dbf35318ec12f51d25e85773 OP_EQUALVERIFY OP_CHECKSIG"
          },
          {
            "value": 30000,
            "script": "OP_DUP OP_HASH160 fb407e88c48921d5547d899e18a7c0a36919f54d OP_EQUALVERIFY OP_CHECKSIG"
          },
          {
            "value": 50000,
            "script": "OP_DUP OP_HASH160 04ccb4eed8cfa9f6e394e945178960f5ccddb387 OP_EQUALVERIFY OP_CHECKSIG"
          }
        ]
      },
      {
        "description": "P2PKH",
        "txHex": "010000000176d7b05b96e69d9760bacf14e496ea01085eff32be8f4e08b299eb92057826e5000000006a4730440220270a2002a3c9c3547843066dd45a68eaec38ad126914a7288c62b5122f8b6688022002407e4bff59f550b9a96d28e1ca6ea8f879bdd8b52bc4628c605eabf45e658f0121038de63cf582d058a399a176825c045672d5ff8ea25b64d28d4375dcdb14c02b2bffffffff0160ea0000000000001976a914851a33a5ef0d4279bd5854949174e2c65b1d450088ac00000000",
        "version": 1,
        "inputs": [
          {
            "txId": "e526780592eb99b2084e8fbe32ff5e0801ea96e414cfba60979de6965bb0d776",
            "vout": 0,
            "signs": [
              {
                "keyPair": "L2FroWqrUgsPpTMhpXcAFnVDLPTToDbveh3bhDaU4jhe7Cw6YujN",
                "hashType": 1,
                "value": 80000
              }
            ],
            "sequence": 4294967295,
            "prevTxScript": "OP_DUP OP_HASH160 851a33a5ef0d4279bd5854949174e2c65b1d4500 OP_EQUALVERIFY OP_CHECKSIG"
          }
        ],
        "outputs": [
          {
            "value": 60000,
            "script": "OP_DUP OP_HASH160 851a33a5ef0d4279bd5854949174e2c65b1d4500 OP_EQUALVERIFY OP_CHECKSIG"
          }
        ],
        "locktime": 0
      },

      {
        "description": "P2WSH multisig input",
        "txHex": "0100000000010176d7b05b96e69d9760bacf14e496ea01085eff32be8f4e08b299eb92057826e50000000000ffffffff0160ea0000000000001976a914851a33a5ef0d4279bd5854949174e2c65b1d450088ac040100483045022100a7cf5c28088647557b1b9eea8366d72a9a89ef380ec1c9f00e75a8458a33d6ca0220265a0174092fdcf5f00749463876d34302c64f590e43af7b59cdec7dea9ba2a201483045022100b3a5e4aa3a6febe0b39f5471b5472998a4868c6662587c2a51159b3a469504af02202df5def10dcb3493edf61f0c6924cac93f0587a11d5a6aa0768c2985b77722980169522102f1c7eac9200f8dee7e34e59318ff2076c8b3e3ac7f43121e57569a1aec1803d4210279be667ef9dcbbac55a06295ce870b07029bfcdb2dce28d959f2815b16f8179821023e4287a9f1ed9a321ad5a0bcea4da36ba360a36b3ed65a8f45e22050e04d2f4a53ae00000000",
        "version": 1,
        "inputs": [
          {
            "txId": "e526780592eb99b2084e8fbe32ff5e0801ea96e414cfba60979de6965bb0d776",
            "vout": 0,
            "signs": [
              {
                "keyPair": "KwDiBf89QgGbjEhKnhXJuH7LrciVrZi3qYjgd9M7rFU73sVHnoWn",
                "value": 10000
              },
              {
                "keyPair": "KzRGFiqhXB7SyX6idHQkt77B8mX7adnujdg3VG47jdVK2x4wbUYg",
                "value": 10000
              }
            ],
            "sequence": 4294967295,
            "witnessScript": "OP_2 02f1c7eac9200f8dee7e34e59318ff2076c8b3e3ac7f43121e57569a1aec1803d4 0279be667ef9dcbbac55a06295ce870b07029bfcdb2dce28d959f2815b16f81798 023e4287a9f1ed9a321ad5a0bcea4da36ba360a36b3ed65a8f45e22050e04d2f4a OP_3 OP_CHECKMULTISIG"
          }
        ],
        "outputs": [
          {
            "value": 60000,
            "script": "OP_DUP OP_HASH160 851a33a5ef0d4279bd5854949174e2c65b1d4500 OP_EQUALVERIFY OP_CHECKSIG"
          }
        ],
        "locktime": 0
      }

    ],
    "fromTransaction": []
  },
  "invalid": {
    "build": [
      {
        "exception": "Transaction has no inputs",
        "inputs": [],
        "outputs": [
          {
            "script": "OP_DUP OP_HASH160 aa4d7985c57e011a8b3dd8e0e5a73aaef41629c5 OP_EQUALVERIFY OP_CHECKSIG",
            "value": 1000
          }
        ]
      },
      {
        "exception": "Transaction has no outputs",
        "inputs": [
          {
            "txId": "ffffffffffffffffffffffffffffffffffffffffffffffffffffffffffffffff",
            "vout": 0
          }
        ],
        "outputs": []
      },
      {
        "exception": "Transaction has absurd fees",
        "inputs": [
          {
            "txRaw": {
              "inputs": [],
              "outputs": [
                {
                  "address": "1C5XhB1UkFuyCV1CG9dmXaXGu3xDL4nAjv",
                  "value": 1000000000
                }
              ],
              "incomplete": true
            },
            "vout": 0,
            "signs": [
              {
                "keyPair": "KzBQVXYUGDAvqG7VeU3C7ZMRYiwtsxSVVFcYGzKU9E4aUVDUquZU"
              }
            ]
          }
        ],
        "outputs": [
          {
            "script": "OP_DUP OP_HASH160 ff99e06c1a4ac394b4e1cb3d3a4b2b47749e339a OP_EQUALVERIFY OP_CHECKSIG",
            "value": 200000
          }
        ]
      },

      {
        "description": "Incomplete transaction, nothing assumed",
        "exception": "Transaction is not complete",
        "inputs": [
          {
            "txId": "ffffffffffffffffffffffffffffffffffffffffffffffffffffffffffffffff",
            "vout": 0
          }
        ],
        "outputs": [
          {
            "script": "OP_DUP OP_HASH160 aa4d7985c57e011a8b3dd8e0e5a73aaef41629c5 OP_EQUALVERIFY OP_CHECKSIG",
            "value": 1000
          }
        ]
      },

      {
        "description": "Incomplete transaction, known prevTxScript, thereby throws for missing signatures",
        "exception": "Transaction is not complete",
        "inputs": [
          {
            "txId": "ffffffffffffffffffffffffffffffffffffffffffffffffffffffffffffffff",
            "vout": 0,
            "signs": [
              {
                "keyPair": "KwDiBf89QgGbjEhKnhXJuH7LrciVrZi3qYjgd9M7rFU73sVHnoWn"
              }
            ]
          },
          {
            "txId": "ffffffffffffffffffffffffffffffffffffffffffffffffffffffffffffffff",
            "vout": 1,
            "prevTxScript": "OP_DUP OP_HASH160 aa4d7985c57e011a8b3dd8e0e5a73aaef41629c5 OP_EQUALVERIFY OP_CHECKSIG"
          }
        ],
        "outputs": [
          {
            "script": "OP_DUP OP_HASH160 aa4d7985c57e011a8b3dd8e0e5a73aaef41629c5 OP_EQUALVERIFY OP_CHECKSIG",
            "value": 1000
          }
        ]
      },

      {
        "description": "Incomplete transaction, partial multisig signatures",
        "exception": "Transaction is not complete",
        "inputs": [
          {
            "txId": "ffffffffffffffffffffffffffffffffffffffffffffffffffffffffffffffff",
            "vout": 1,
            "witnessScript": "OP_2 02f1c7eac9200f8dee7e34e59318ff2076c8b3e3ac7f43121e57569a1aec1803d4 0279be667ef9dcbbac55a06295ce870b07029bfcdb2dce28d959f2815b16f81798 023e4287a9f1ed9a321ad5a0bcea4da36ba360a36b3ed65a8f45e22050e04d2f4a OP_3 OP_CHECKMULTISIG",
            "signs": [
              {
                "keyPair": "KwDiBf89QgGbjEhKnhXJuH7LrciVrZi3qYjgd9M7rFU73sVHnoWn",
                "value": 10000
              }
            ]
          }
        ],
        "outputs": [
          {
            "script": "OP_DUP OP_HASH160 aa4d7985c57e011a8b3dd8e0e5a73aaef41629c5 OP_EQUALVERIFY OP_CHECKSIG",
            "value": 1000
          }
        ]
      },

      {
        "description": "Duplicate transaction outs",
        "exception": "Duplicate TxOut: ffffffffffffffffffffffffffffffffffffffffffffffffffffffffffffffff:0",
        "incomplete": true,
        "inputs": [
          {
            "txId": "ffffffffffffffffffffffffffffffffffffffffffffffffffffffffffffffff",
            "vout": 0
          },
          {
            "txId": "ffffffffffffffffffffffffffffffffffffffffffffffffffffffffffffffff",
            "vout": 0
          }
        ],
        "outputs": [
          {
            "script": "OP_DUP OP_HASH160 aa4d7985c57e011a8b3dd8e0e5a73aaef41629c5 OP_EQUALVERIFY OP_CHECKSIG",
            "value": 1000
          }
        ]
      }
    ],
    "sign": [
      {
        "description": "Too many signatures - P2PKH",
        "exception": "Can't sign a complete transaction input",
        "inputs": [
          {
            "txId": "ffffffffffffffffffffffffffffffffffffffffffffffffffffffffffffffff",
            "vout": 1,
            "signs": [
              {
                "keyPair": "KwDiBf89QgGbjEhKnhXJuH7LrciVrZi3qYjgd9M7rFU73sVHnoWn"
              },
              {
                "keyPair": "KwDiBf89QgGbjEhKnhXJuH7LrciVrZi3qYjgd9M7rFU73sVHnoWn",
                "throws": true
              }
            ]
          }
        ],
        "outputs": [
          {
            "script": "OP_DUP OP_HASH160 aa4d7985c57e011a8b3dd8e0e5a73aaef41629c5 OP_EQUALVERIFY OP_CHECKSIG",
            "value": 1000
          }
        ]
      },
      {
        "description": "Wrong network for keyPair",
        "exception": "Inconsistent network",
        "network": "bitcoin",
        "inputs": [
          {
            "txId": "ffffffffffffffffffffffffffffffffffffffffffffffffffffffffffffffff",
            "vout": 0,
            "signs": [
              {
                "keyPair": "91avARGdfge8E4tZfYLoxeJ5sGBdNJQH4kvjJoQFacbgwmaKkrx",
                "network": "testnet",
                "throws": true
              }
            ]
          }
        ],
        "outputs": [
          {
            "script": "OP_DUP OP_HASH160 aa4d7985c57e011a8b3dd8e0e5a73aaef41629c5 OP_EQUALVERIFY OP_CHECKSIG",
            "value": 1000
          }
        ]
      },
      {
        "description": "Transaction w/ no outputs (but 1 SIGHASH_NONE)",
        "exception": "Transaction needs outputs",
        "inputs": [
          {
            "txId": "ffffffffffffffffffffffffffffffffffffffffffffffffffffffffffffffff",
            "vout": 0,
            "signs": [
              {
                "keyPair": "KwDiBf89QgGbjEhKnhXJuH7LrciVrZi3qYjgd9M7rFU73sVHnoWn",
                "hashType": 2
              }
            ]
          },
          {
            "txId": "ffffffffffffffffffffffffffffffffffffffffffffffffffffffffffffffff",
            "vout": 1,
            "signs": [
              {
                "keyPair": "KwDiBf89QgGbjEhKnhXJuH7LrciVrZi3qYjgd9M7rFU73sVHnoWn",
                "throws": true
              }
            ]
          }
        ],
        "outputs": []
      },
      {
        "description": "Transaction w/ no outputs",
        "exception": "Transaction needs outputs",
        "inputs": [
          {
            "txId": "ffffffffffffffffffffffffffffffffffffffffffffffffffffffffffffffff",
            "vout": 0,
            "signs": [
              {
                "keyPair": "KwDiBf89QgGbjEhKnhXJuH7LrciVrZi3qYjgd9M7rFU73sVHnoWn",
                "throws": true
              }
            ]
          }
        ],
        "outputs": []
      },
      {
        "description": "Double sign a multisig input",
        "exception": "Can't sign a complete transaction input",
        "inputs": [
          {
            "txId": "ffffffffffffffffffffffffffffffffffffffffffffffffffffffffffffffff",
            "vout": 1,
            "witnessScript": "OP_1 0279be667ef9dcbbac55a06295ce870b07029bfcdb2dce28d959f2815b16f81798 OP_1 OP_CHECKMULTISIG",
            "signs": [
              {
                "keyPair": "KwDiBf89QgGbjEhKnhXJuH7LrciVrZi3qYjgd9M7rFU73sVHnoWn",
                "value": 10000
              },
              {
                "keyPair": "KwDiBf89QgGbjEhKnhXJuH7LrciVrZi3qYjgd9M7rFU73sVHnoWn",
                "value": 10000,
                "throws": true
              }
            ]
          }
        ],
        "outputs": [
          {
            "script": "OP_DUP OP_HASH160 aa4d7985c57e011a8b3dd8e0e5a73aaef41629c5 OP_EQUALVERIFY OP_CHECKSIG",
            "value": 1000
          }
        ]
      },
      {
        "description": "Incorrect public key for multisig input",
        "exception": "Key pair cannot sign for this input",
        "inputs": [
          {
            "txId": "ffffffffffffffffffffffffffffffffffffffffffffffffffffffffffffffff",
            "vout": 1,
            "witnessScript": "OP_1 023e4287a9f1ed9a321ad5a0bcea4da36ba360a36b3ed65a8f45e22050e04d2f4a OP_1 OP_CHECKMULTISIG",
            "signs": [
              {
                "keyPair": "KwDiBf89QgGbjEhKnhXJuH7LrciVrZi3qYjgd9M7rFU73sVHnoWn",
                "value": 10000,
                "throws": true
              }
            ]
          }
        ],
        "outputs": [
          {
            "script": "OP_DUP OP_HASH160 aa4d7985c57e011a8b3dd8e0e5a73aaef41629c5 OP_EQUALVERIFY OP_CHECKSIG",
            "value": 1000
          }
        ]
      },

      {
        "description": "Not a multisig input",
        "exception": "Script must end in a CHECKMULTISIG",
        "inputs": [
          {
            "txId": "ffffffffffffffffffffffffffffffffffffffffffffffffffffffffffffffff",
            "vout": 1,
            "witnessScript": "OP_DUP OP_HASH160 aa4d7985c57e011a8b3dd8e0e5a73aaef41629c5 OP_EQUALVERIFY OP_CHECKSIG",
            "signs": [
              {
                "keyPair": "KwDiBf89QgGbjEhKnhXJuH7LrciVrZi3qYjgd9M7rFU73sVHnoWn",
                "value": 10000,
                "throws": true
              }
            ]
          }
        ],
        "outputs": [
          {
            "script": "OP_DUP OP_HASH160 aa4d7985c57e011a8b3dd8e0e5a73aaef41629c5 OP_EQUALVERIFY OP_CHECKSIG",
            "value": 1000
          }
        ]
      },

      {
        "description": "Cannot sign past threshold",
        "exception": "Can't sign a complete transaction input",
        "inputs": [
          {
            "txId": "ffffffffffffffffffffffffffffffffffffffffffffffffffffffffffffffff",
            "vout": 1,
            "witnessScript": "OP_2 02f1c7eac9200f8dee7e34e59318ff2076c8b3e3ac7f43121e57569a1aec1803d4 0279be667ef9dcbbac55a06295ce870b07029bfcdb2dce28d959f2815b16f81798 023e4287a9f1ed9a321ad5a0bcea4da36ba360a36b3ed65a8f45e22050e04d2f4a OP_3 OP_CHECKMULTISIG",
            "signs": [
              {
                "keyPair": "KwDiBf89QgGbjEhKnhXJuH7LrciVrZi3qYjgd9M7rFU73sVHnoWn",
                "value": 10000
              },
              {
                "keyPair": "KzRGFiqhXB7SyX6idHQkt77B8mX7adnujdg3VG47jdVK2x4wbUYg",
                "value": 10000
              },
              {
                "keyPair": "KzBQVXYUGDAvqG7VeU3C7ZMRYiwtsxSVVFcYGzKU9E4aUVDUquZU",
                "value": 10000,
                "throws": true
              }
            ]
          }
        ],
        "outputs": [
          {
            "script": "OP_DUP OP_HASH160 aa4d7985c57e011a8b3dd8e0e5a73aaef41629c5 OP_EQUALVERIFY OP_CHECKSIG",
            "value": 1000
          }
        ]
      },

      {
        "description": "Need witness value for P2WSH",
        "exception": "Require previous output value for witness inputs",
        "inputs": [
          {
            "txId": "ffffffffffffffffffffffffffffffffffffffffffffffffffffffffffffffff",
            "vout": 1,
            "witnessScript": "OP_1 0279be667ef9dcbbac55a06295ce870b07029bfcdb2dce28d959f2815b16f81798 OP_1 OP_CHECKMULTISIG",
            "signs": [
              {
                "keyPair": "KwDiBf89QgGbjEhKnhXJuH7LrciVrZi3qYjgd9M7rFU73sVHnoWn",
                "throws": true
              }
            ]
          }
        ],
        "outputs": [
          {
            "script": "OP_DUP OP_HASH160 aa4d7985c57e011a8b3dd8e0e5a73aaef41629c5 OP_EQUALVERIFY OP_CHECKSIG",
            "value": 1000
          }
        ]
      }

    ],
    "fromTransaction": [
      {
        "exception": "coinbase inputs not supported",
        "txHex": "01000000010000000000000000000000000000000000000000000000000000000000000000000000006b483045022100a3b254e1c10b5d039f36c05f323995d6e5a367d98dd78a13d5bbc3991b35720e022022fccea3897d594de0689601fbd486588d5bfa6915be2386db0397ee9a6e80b601210279be667ef9dcbbac55a06295ce870b07029bfcdb2dce28d959f2815b16f81798ffffffff0110270000000000001976a914aa4d7985c57e011a8b3dd8e0e5a73aaef41629c588ac00000000"
      }
    ]
  }
}
